:020000040800F2
:10000000B806002001010008FB0E0008BF0E000822
:10001000F90E00080F020008451800080000000053
:10002000000000000000000000000000DF150008D4
:10003000110200080000000027150008E115000863
:100040001B0100081B0100081B0100081B01000820
:100050001B0100081B0100081B0100081B01000810
:100060001B0100081B0100081B0100081B01000800
:100070001B0100081B0100081B0100081B010008F0
:100080001B0100081B0100081B0100081B010008E0
:100090001B0100081B0100081B0100081B010008D0
:1000A0001B0100081B0100081B0100081B010008C0
:1000B0001B0100081B0100081B0100081B010008B0
:1000C0001B0100081B0100081B0100081B010008A0
:1000D0001B0100081B0100081B0100081B01000890
:1000E0001B0100081B0100081B010008DFF80CD0F1
:1000F00000F06CF800480047551D0008B8060020C5
:100100000648804706480047FEE7FEE7FEE7FEE7B1
:10011000FEE7FEE7FEE7FEE7FEE7FEE7291600083A
:10012000ED000008202A04DB203A21FA02F0002129
:10013000704721FA02F3D040C2F1200291400843F7
:1001400019467047D2B201E000F8012B491EFBD2DC
:1001500070470022F6E710B513460A4604461946D2
:10016000FFF7F0FF204610BD2DE9F05F05460020A7
:1001700092469B4688460646814640241BE0284618
:10018000414647462246FFF7CDFF53465A46C01A1E
:10019000914110D311461846224600F029F82D1A35
:1001A00067EB01084F4622460120002100F020F8AD
:1001B00017EB00094E41201EA4F10104DFDC484684
:1001C00031462A464346BDE8F09F0000064C074DE5
:1001D00006E0E06840F0010394E807009847103417
:1001E000AC42F6D3FFF786FF3C2000085C200008F5
:1001F000202A04DB203A00FA02F1002070479140E7
:10020000C2F1200320FA03F3194390407047FEE740
:100210007047000070B5044600F0F2F80546601C17
:1002200002D004480078044400F0EAF8401BA042E1
:10023000FAD370BD000000202DE9F84FDFF890A13F
:1002400000220AF1040B144601274FF00F090BF1AD
:10025000040E00BF0B6807FA04F52B40AB4274D1C3
:10026000DFF870C14E68A6EB0C0866452BD00DDC9C
:10027000032E34D005DC36B3012E19D0022E2FD137
:100280001BE0112E16D0122E2AD119E0B8F5881FC6
:1002900019D006DCB8F5803F15D0B8F5801F1FD106
:1002A00011E0B8F5001F0ED0B8F5041F18D10AE010
:1002B000CA6815E0CA68121D12E0CA6808320FE069
:1002C000CA680C320CE08A682AB1012A4FF0080291
:1002D00003D0456104E0042202E0056100E0002251
:1002E000FF2B01D8064601E000F104064FEA840521
:1002F00001D9A5F12005D6F800C009FA05F82CEAC5
:10030000080C02FA05F54CEA050CC6F800C04D6869
:10031000ED0057D5304DAE6946F00106AE61AD69CE
:1003200024F0030605F0010500952C4D06EB050CA5
:10033000DCF80850A6074FEA167809FA08F6B54324
:10034000274EB04202D1002610E03BE0254EB042DD
:1003500001D101260AE0244EB04201D1022605E077
:10036000224EB04201D1032600E0042606FA08F628
:100370002E43CCF808604D68DAF80060ED0355466E
:1003800001D51E4300E09E432E604D68DBF80060FF
:10039000AD035D4601D51E4300E09E432E604D68CF
:1003A000DEF80060ED02754601D51E4300E09E4375
:1003B0002E604D68AD020E4D2E6801D51E4300E043
:1003C0009E432E60641C102CFFF444AFBDE8F88FF0
:1003D0000004014000001110001002400000014024
:1003E00000080140000C01400010014000140140D1
:1003F0000C0401400AB1016170470904FBE70000E9
:1004000001488068704700000000002002488168B1
:10041000027811448160704700000020074810B541
:10042000016841F010010160032000F067F800202E
:1004300000F006F800F024F8002010BD0020024073
:1004400070B50D4D04464FF47A712878B1FBF0F089
:100450000A490968B1FBF0F000F056FC48B9102CCD
:1004600007D200222146501E00F028F800206C60C0
:1004700070BD012070BD0000000000200C000020B5
:100480000C4808B5816941F001018161816901F081
:1004900001010091C16941F08051C161C06900F062
:1004A000805000900448416821F0E06141F0806193
:1004B000416008BD0010024000000140F0B40E4B46
:1004C0001B680C46C3F30223C3F10705042D00D9B2
:1004D0000425191D072901D2002300E0DB1E012697
:1004E00006FA05F1491E214099409E40761E1640AD
:1004F0003143F0BC00F002BD0CED00E0064900F015
:10050000070208684FF6FF03184040EA0220034A3A
:1005100010430860704700000CED00E00000FA0591
:100520002DE9F047DFF8548105460E46D8F8000063
:1005300000F00700B0420CD2D8F8001021F00701FB
:100540003143C8F80010D8F8000000F00700B042AE
:100550006FD128684A4C810712D5400703D56068DF
:1005600040F4E06060602878000703D5606840F4DC
:10057000605060606068A96820F0F0000843606027
:100580002878C00744D06868012816D0216802285E
:1005900016D0890700294CDA616821F00301014374
:1005A0006160FFF72DFF6968074641F28830012935
:1005B0000ED00229814618D026E021688903E9E798
:1005C0008901E7E7FFF71CFFC11B494501D918E086
:1005D00081466068C0F381000128F3D118E000BFB4
:1005E000FFF70EFFC11B49450BD86068C0F38100BF
:1005F0000228F5D10CE000BFFFF702FFC11B4945FF
:1006000002D90320BDE8F087606810F00C0FF3D129
:10061000D8F80010404601F00701B1420BD901683B
:1006200021F0070131430160006800F00700B0428B
:1006300001D00120E6E72878400705D56068E96821
:1006400020F4E060084360602878000706D5606801
:10065000296920F4605040EAC100606000F036F87B
:100660006168084AC1F30311515CC840064908603B
:100670000020FFF7E5FE0020C4E700000020024054
:1006800000100240222000080C0000200448054908
:1006900000684968044AC1F30221515CC8407047B0
:1006A0000C000020001002403220000804480549D8
:1006B00000684968044AC1F3C221515CC8407047D0
:1006C0000C000020001002403220000812A185B06A
:1006D0000FC98DE80F0014A0144A006804905168F7
:1006E000134801F00C03042B10D0082B0ED1C1F3DA
:1006F0008343C9031DF803000AD5516804AAC1F356
:100700004041515C0A4A5043B0FBF1F005B07047DC
:1007100008494843FAE700000203040506070809F0
:100720000A0B0C0D0E0F1010010200000010024009
:1007300000127A0000093D002DE9F84F04460078C8
:10074000B94DC00748D06868C0F38100012807D0C0
:100750006868C0F38100022809D16868C00306D523
:100760002868800338D5606800286FD034E060685E
:10077000B0F5803F0BD010B1B0F5A02F11D0286894
:1007800020F480302860286820F4802002E0286867
:1007900040F480302860606888B1FFF731FE06467B
:1007A00009E0286840F480202860F0E7FFF728FE81
:1007B000801B642875D828688003F7D50CE0FFF704
:1007C0001FFE064605E000BFFFF71AFE801B6428E7
:1007D000F0D828688003F7D42078944E80074FF033
:1007E00001094FF000083BD5686810F00C0F07D0E6
:1007F0006868C0F38100022809D16868C00306D484
:100800002868800714D5206901281FD110E02069CD
:10081000B0B1C6F80090FFF7F3FD074605E000BF52
:10082000FFF7EEFDC01B0228C4D828688007F7D563
:100830002868616920F0F80040EAC10028600FE0F4
:10084000C6F80080FFF7DCFD074606E0E9E000BFE0
:10085000FFF7D6FDC01B022823D828688007F7D4ED
:10086000207800072CD57248A169D9B1C0F8009052
:10087000FFF7C6FD074604E0FFF7C2FDC01B0228D4
:100880000FD8686A8007F7D56A484FF4FA510068B4
:10089000B0FBF1F0009000BF0098411E0091FAD229
:1008A0000EE080E0C0F80080FFF7AAFD074604E0F4
:1008B000FFF7A6FDC01B022875D8686A8007F7D429
:1008C0002078400760D5E8690027C00008D4E869AF
:1008D00040F08050E861E869012700F08050009006
:1008E00055480168C90513D40168834641F48071F5
:1008F0000160FFF785FD824606E000BFFFF780FD3F
:10090000A0EB0A0064284ED8DBF80000C005F5D53E
:10091000E06801280AD008B1052813D0286A20F021
:1009200001002862286A20F0040002E0286A40F0F2
:1009300001002862E06841F2883B98B1FFF760FD52
:1009400082460BE0286A40F004002862EEE700BF10
:10095000FFF756FDA0EB0A0159455AD8286A8007CF
:10096000F6D50CE0FFF74CFD824605E0FFF748FDA9
:10097000A0EB0A0159454CD8286A8007F6D41FB16C
:10098000E86920F08050E861E06988B36968C1F3E4
:100990008101022945D00228C6F8608004D0FFF703
:1009A0002FFD044638E034E0FFF72AFD074604E057
:1009B000FFF726FDC01B02282BD828688001F7D43A
:1009C000206AB0F5803F05D16868A16820F4003046
:1009D00008436860D4E908010843696821F4741188
:1009E00008436860C6F86090FFF70AFD044606E019
:1009F00015E000BFFFF704FD001B022809D8286896
:100A00008001F7D50BE000BFFFF7FAFC001B0228BE
:100A100002D90320BDE8F88F28688001F4D40020B3
:100A2000F8E70120F6E70000001002400000424213
:100A3000800442420C0000200070004070B50400A9
:100A400005D00025A56294F8510010B104E0012002
:100A500070BD204600F034F8022084F85100206870
:100A6000016821F040010160D4E901010843D4E9A3
:100A700003121143084361690843218B01F400719B
:100A80000843E1690843216A0843A16A08432168D1
:100A90000860A069042101EA1040616A08432168E6
:100AA00048602168E06A08612068C16921F400613A
:100AB000C1616565012084F85100002070BD00000F
:100AC00030B585B00024009401940294039400682A
:100AD0001449884223D11448816941F480518161CD
:100AE000816901F480510491816941F004018161BF
:100AF00080690E4D00F004000490A02000900220B8
:100B000001900320039069462846FFF795FB40209B
:100B1000CDE90004694628460294FFF78DFB05B035
:100B200030BD0000003001400010024000080140CC
:100B30002DE9F84F044690F8500000260A9F9A4687
:100B400093460D464FF0010801280ED0012084F88D
:100B50005000FFF755FC814694F851006168012868
:100B60000CD0B1F5827F07D102E00220BDE8F88FFA
:100B7000A16809B9042801D00226BDE055B1BBF136
:100B8000000F07D0BAF1000F04D094F851000128EB
:100B900002D004E00126AFE0052084F851000020D7
:100BA0006065C4F838B0A4F83EA0A4F83CA0256362
:100BB000A4F836A0A4F834A020646064206801681A
:100BC000490603D4016841F040010160E068B0F5D6
:100BD000006F606804D0E8B3E08E01283BD06AE083
:100BE00010B1E08E01282ED1216835F8020BC860C3
:100BF000E08E401EE08626E0B8F1000F0DD0E08EBA
:100C000058B120688168890707D535F8021BC16093
:100C1000E08E401EE0864FF00008E08F58B120685B
:100C20008168C90707D0C0682BF8020BE08F401E0F
:100C3000E0874FF00108781C05D0FFF7E1FBA0EB3F
:100C40000900B84246D2E08E0028D5D1E08F0028B6
:100C5000D2D136E0FFE7216815F8010B0873E08E6A
:100C6000401EE08627E000BFB8F1000F0DD0E08EF7
:100C700058B120688168890707D515F8011B0173F1
:100C8000E08E401EE0864FF00008E08F58B12068EB
:100C90008168C90707D0C0680BF8010BE08F401EC0
:100CA000E0874FF00108781C05D0FFF7A9FBA0EB07
:100CB0000900B8420ED2E08E0028D5D1E08F00287E
:100CC000D2D13B46012202212046CDF8009000F00F
:100CD0003BFC08B103260FE04A463946204600F0A7
:100CE00023FC18B101262020606505E0A06818B932
:100CF0002068C16880680090012084F851000020BD
:100D000084F85000304631E710B5401EB0F1807FC6
:100D100001D3012010BD4FF0E02460610F21601766
:100D200000F0ECF80020A06107202061002010BD39
:100D300070B5040004D094F83900002510B106E025
:100D4000012070BD84F83850204600F023F824209C
:100D500084F839002068C16821F40051C160204640
:100D600000F086FC2068016921F49041016120684F
:100D7000416921F02A0141612068C16841F40051B4
:100D8000C160E563202084F8390084F83A0000202F
:100D900070BD000030B585B0002400940194029429
:100DA000039400681449884224D11448816941F4AD
:100DB00080418161816901F480410491816941F040
:100DC0000401816180690E4D00F0040004904FF42D
:100DD000007000900220019003200390694628468D
:100DE000FFF72AFA2815CDE900046946284602943F
:100DF000FFF722FA05B030BD003801400010024074
:100E0000000801402DE9F843044690F839001F46D8
:100E100016460D46202850D1A5B19EB194F8380051
:100E200001284AD0012084F838004FF00008C4F8A7
:100E30003C80212084F83900FFF7E2FAA68481463D
:100E4000E68426E00120BDE8F883E08C401EE084C3
:100E5000A0684B46B0F5805F4FF000024FF0800174
:100E60002046009703D000F0BBFCE8B90DE000F08D
:100E7000B7FCC8B928882168C0F308004860206919
:100E800008B16D1C05E0AD1C03E0216815F8010BED
:100E90004860E08C0028D8D14B46002240212046F3
:100EA000009700F09DFC08B10320CCE7202084F8D7
:100EB000390084F838800020C5E70220C3E7FEE748
:100EC0000C480B494FF4007201604FF4827141608D
:100ED00000218160C1600161C0E905123022C26158
:100EE0008022C0E9082181620A21C162FFF7A6BD04
:100EF000003001401C000020FEE770470907090E82
:100F0000002806DA00F00F0000F1E02080F8141D40
:100F1000704700F1E02080F8001470472DE9F04799
:100F2000C0B00F4604469146D420DDE948218DF833
:100F300000001E46DDF828A18DF8017000206D46E6
:100F400006E0135C05EB000C401C8CF80230C0B2CC
:100F50008842F6D3891C8AB22946204600F0A6FAB8
:100F60004FF0FF3820B12069804720A061690FE071
:100F7000E1685046884708B3626806216846904792
:100F80001F4900200A5C2B5C9A4203D061691DA0B6
:100F9000884713E0401CC0B20628F3D3E1685046EE
:100FA000884758B1B01C82B26946204600F006F965
:100FB00001469DF80000D52809D103E0404640B025
:100FC000BDE8F0879DF801007F1CB84202D018A050
:100FD0006169DDE7002005E02A18937809F8003000
:100FE000401CC0B2B042F7D3881EE8E7547279695A
:100FF0006E6720746F2077616B657570000000006C
:101000001C200008446964206E6F7420726563655B
:101010006976652065787065637465642041434B2B
:101020002066726F6D20504E353332210000000073
:10103000526563656976656420756E657870656371
:1010400074656420636F6D6D616E6420726573708A
:101050006F6E7365210000003EB5044600204FF41A
:10106000FA720090CDE901020A46042302212046CB
:10107000FFF754FF401C01D000203EBD616902A073
:1010800088474FF0FF303EBD4661696C656420744F
:101090006F206465746563742074686520504E35F4
:1010A000333200000649016006494160064981600B
:1010B0000649C160064901610649416100F0BEB9B7
:1010C000D11300087D11000875140008FD130008F5
:1010D0003D140008D910000810B500F0B5FBBDE8BC
:1010E000104001A000F0B0BB0D0A000010B50C4686
:1010F00010A18AB0096808918DF822204FF47A7304
:10110000032208A98DE80E00112303AA4021FFF74E
:1011100005FF9DF80C00002809D103A90A18527890
:101120002254401CC0B20428F8D39DF80C000AB029
:1011300010BD00000130000030B587B001238DF8EC
:101140000C30A2238DF80D308DF80E20002203AB59
:101150008C5C9D18521CD2B2EC70042AF8D3072282
:10116000CDE900324FF47A710291012305AA4021A2
:10117000FFF7D4FE9DF8140007B030BD70B50646E9
:101180000C46481C00F0F2FE05460320287005209E
:10119000FFF740F8601CC1B2284600F01DFF002098
:1011A00004E0291849783154401CC0B2A042F8D359
:1011B000284600F0A7FD002070BD00002DE9F04199
:1011C00005460026D01D14468846C2B081B26A6822
:1011D000684690470020471E6946083406E0401CD8
:1011E000C0B2A04202D31EA0696927E00A5C002AAF
:1011F000F5D0D2B2FF2AF6D1401CC3B2A34202D32B
:1012000024A069691AE0C818CA5C4078104410F03C
:10121000FF0F02D026A0696910E00020541C08E0EE
:1012200003EB000C8C44401C9CF802C0C0B2664426
:10123000F6B2A042F4D336B1696929A0884738468E
:1012400042B0BDE8F081002006E01C180C44A578EF
:1012500008F80050401CC0B29042F6D31046EFE7A9
:10126000526573706F6E7365206672616D65207074
:101270007265616D626C6520646F6573206E6F745A
:1012800020636F6E7461696E20307830304646217D
:1012900000000000526573706F6E736520636F6E9F
:1012A0007461696E73206E6F206461746121000047
:1012B000526573706F6E7365206C656E677468201D
:1012C000636865636B73756D20646964206E6F7409
:1012D000206D61746368206C656E6774682100001E
:1012E000526573706F6E736520636865636B7375A9
:1012F0006D20646964206E6F74206D617463682072
:10130000657870656374656420636865636B737585
:101310006D00000070B504461AA08AB000680D4642
:10132000089008A98DF8212000910220CDE9010341
:10133000132303AA4A212046FFF7F0FD4FF0FF36A2
:10134000002802DA30460AB070BD9DF80C00012872
:1013500002D00DA0616905E09DF81100072803D9AE
:10136000616911A08847EDE7002003A904E00A188D
:1013700092792A54401CC0B29DF811208242F6D8BE
:10138000D0B2E0E7010000004D6F72652074686123
:101390006E206F6E6520636172642064657465639E
:1013A0007465642100000000466F756E64206361FF
:1013B0007264207769746820756E657870656374EF
:1013C00065646C79206C6F6E67205549442100007C
:1013D000002070471FB508A14FF47A730968039184
:1013E000032203A98DE80E0000231A461421FFF7FB
:1013F00095FD04B0002010BD0114010038B505466C
:101400000DA000680090FEF7FBFF04460DE00A20E7
:10141000FEF700FF0221684600F0DEFD9DF80100A6
:10142000012808D00520FEF7F5FEFEF7E9FF001BB6
:10143000A842ECD3002038BD0200000038B50020DF
:101440004FF47A7400902046FEF7E4FE002210214B
:101450000748FEF7CFFF0220FEF7DCFE01216846B9
:1014600000F0BAFD2046FEF7D5FE002038BD000092
:101470000008014070B506460C46481C00F076FD99
:10148000054601202870002004E0315C2A18401C29
:101490005170C0B2A042F8D3641CE1B2284600F0FB
:1014A0009BFD284600F02EFC002070BDF0B50746DD
:1014B000501EC3B04FF0FF35FF2831D200248DF805
:1014C00000408DF80140FF208DF80200A446204620
:1014D0006E46335C401C2344C0B2DCB20328F8D310
:1014E000D043401C8DF803208DF80400002309E050
:1014F00006EB030EC85C8EF80500C85C5B1C20443C
:10150000C4B2DBB29342F3D3E143B018D21D4171B0
:1015100080F806C091B2BA6830469047002800D0E3
:10152000284643B0F0BD704738B50B4600920446DC
:101530000022802100F008F8002804D0606D40F0FF
:1015400020006065032038BD2DE9F0411D46174697
:101550000E460446DDF8188035E0681C33D02DB106
:10156000FEF74EFFA0EB0800A8422CD3206841688C
:1015700021F0E00141606068B0F5827F0BD1A06886
:10158000B0F5004F02D0B0F5806F04D1206801683B
:1015900021F040010160A06AB0F5005F0AD1206827
:1015A00001684DF6FF72114001602068016841F446
:1015B00000510160012084F85100002084F850009F
:1015C0000320BDE8F0812068806836EA000004D07E
:1015D0000020B842C1D10020F3E70120F9E77047AD
:1015E000FEF714BF10B590B028216846FEF7B1FD94
:1015F00014210AA8FEF7ADFD0220009001200490FE
:1016000010200024059007946846FFF795F80F20F6
:10161000CDE90A040C940D9400210AA80E94FEF75B
:101620007FFF10B010BD00000D48016841F00101BE
:10163000016041680B4A1140416001680A4A11404B
:101640000160016821F480210160416821F4FE01FC
:1016500041604FF41F0181600449C0030860704776
:10166000001002400000FFF8FFFFF6FE08ED00E06A
:101670002DE9F041044600680169E26821F4405117
:10168000114301612169A068084361690843216829
:10169000CA6841F20C639A430243CA6020684169F8
:1016A000A26921F44071114341614C4920686425CD
:1016B000322688423CD1FEF7F9FF00EBC00101EB76
:1016C000001061688900B0FBF1F7FEF7EFFF00EB57
:1016D000C00101EB00106168B0468900B0FBF1F079
:1016E000B0FBF5F06FF01801484307EB800106EB03
:1016F0000110B0FBF5F000F0F006FEF7D7FF00EBAD
:10170000C00101EB001061688900B0FBF1F0B0FB93
:10171000F5F006EB0016FEF7C9FF00EBC00101EB88
:10172000001061688900B0FBF1F7FEF7BFFF3BE0F6
:10173000FEF7ACFF00EBC00101EB0010616889000F
:10174000B0FBF1F7FEF7A2FF00EBC00101EB0010C8
:101750006168B0468900B0FBF1F0B0FBF5F06FF0C6
:101760001801484307EB800106EB0110B0FBF5F0D0
:1017700000F0F006FEF78AFF00EBC00101EB00105D
:1017800061688900B0FBF1F0B0FBF5F006EB0016E4
:10179000FEF77CFF00EBC00101EB001061688900DF
:1017A000B0FBF1F7FEF772FF00EBC00101EB001098
:1017B00061688900B0FBF1F0B0FBF5F06FF0180143
:1017C000484307EB800108EB0110B0FBF5F02168FE
:1017D00000F00F0030448860BDE8F081003801401F
:1017E0002DE9F041984617460E460446069D1DE039
:1017F000681C1BD02DB1FEF703FEA0EB0800A84229
:1018000014D92068C16821F4D071C1602068416991
:1018100021F001014161202084F8390084F83A0068
:10182000002084F838000320BDE8F08120680068BB
:1018300036EA000004D00020B842D9D00020F3E7F7
:101840000120F9E7FEE700000FB4054B10B503A92E
:10185000044A029800F018F810BC5DF814FB000070
:10186000ED1C00081000002002E008C8121F08C18B
:10187000002AFAD170477047002001E001C1121F11
:10188000002AFBD1704700002DE9FF4F8DB00F46B5
:101890000546002606E025280BD0DDE90F1290470B
:1018A0006D1C761C28780028F5D111B03046BDE8B3
:1018B000F08F0024A246A1460122EC4900E0044337
:1018C00015F8013F203B02FA03F00842F7D12878CF
:1018D0002A2810D06FF02F022878A0F130010929B2
:1018E00014D80AEB8A0102EB410144F0020400EB38
:1018F000010A6D1CF0E701CF5FEA000A03D544F44A
:101900000054CAF1000A44F002046D1C28782E2805
:1019100017D115F8010F44F004042A280ED06FF0F7
:101920002F022878A0F1300109290AD809EB890192
:1019300002EB410100EB01096D1CF2E757F8049B33
:101940006D1C28786C280FD006DC4C2817D068282E
:101950000DD06A2814D104E0742810D07A280FD151
:101960000DE044F400140AE044F4801401E044F46F
:1019700040146978814202D104F580146D1C6D1CFD
:101980002A786E2A1FD00CDC632A31D004DC002AAE
:101990008BD0582A11D1A3E0642A68D0692A0CD1CF
:1019A00065E0732A2ED004DC6F2A73D0702A04D12C
:1019B0009BE0752A6FD0782A6ED01046DDE90F12B1
:1019C0009047761C50E1C4F30250022806D0032849
:1019D00009D0042801CF09D0066045E101CFF117F5
:1019E000C0E9006140E101CF06803DE106703BE1C6
:1019F00017F8040B8DF8000000208DF80100EB466D
:101A0000012003E057F804BB4FF0FF3061074FF0AF
:101A1000000102D40DE008F10101884649450FDAC2
:101A20008045F8DB1BF808100029F4D108E008F124
:101A3000010188468142FADB1BF808100029F6D123
:101A4000DDE90F23AAEB08008146214600F036F9B4
:101A5000304400EB080604E0DDE90F121BF8010B2F
:101A60009047B8F10108F7D221464846F7E00A212D
:101A7000C4F302534FF0000B0891022B04D001CFA6
:101A8000C117032B09D00AE0FF1D27F00707F7E86D
:101A9000020108E032E01FE020E000B2C117042B91
:101AA00001D140B2C117031E71F1000307DA4FF0F4
:101AB000000CD0EB0C006CEB01012D2302E02305A0
:101AC00004D52B238DF82430012303E0E30701D054
:101AD0002023F7E7984658E00A2110E010210EE095
:101AE00010204FF0000B08900CE010214FF0000B7D
:101AF00044F004044FF00809089103E008214FF076
:101B0000000B0891C4F30253022B04D001CF002133
:101B1000032B06D006E0FF1D27F00707F7E80201B8
:101B200003E080B2042B00D1C0B24FF000082307BD
:101B30002BD5702A07D0DDF820C08CF0100C5CEAA1
:101B40000B0C05D00EE040238DF82430012308E073
:101B500050EA010306D030238DF824308DF825207B
:101B600002239846DDF820C08CF0080C5CEA0B0CD0
:101B70000BD150EA010301D1630706D530238DF85C
:101B800024304FF00108A9F10109582A04D038A2E5
:101B90000B9208AA0A920BE03AA2F9E75B46089A70
:101BA000FEF7E2FA0B9B9B5C0A9A521E0A92137094
:101BB00050EA0102F2D10A98ADEB000000F1200BCF
:101BC000600702D524F4803401E04FF00109D945C3
:101BD00002DDA9EB0B0000E0002000EB0B0141440B
:101BE0000890AAEB010AE00306D4DDE90F232146A1
:101BF000504600F063F806444FF0000908E009A9D8
:101C000011F80900DDE90F12904709F10109761C6E
:101C1000C145F4DBE0030CD5DDE90F232146504636
:101C200000F04CF8064404E0DDE90F123020904744
:101C3000761C0899481E08900029F5DC08E00A98EF
:101C40000A990078491C0A91DDE90F129047761C29
:101C5000BBF10001ABF1010BF1DC21465046DDE99F
:101C60000F2300F019F806446D1C1BE6092801003B
:101C70003031323334353637383961626364656602
:101C800000000000303132333435363738394142C4
:101C900043444546000000002DE9F041044600257C
:101CA0001E461746880404D405E039462020B04774
:101CB0006D1C641EF9D52846BDE8F0812DE9F04180
:101CC000044600251E469046C80301D5302700E093
:101CD0002027880404D505E041463846B0476D1CEE
:101CE000641EF9D52846BDE8F081000013B54FF613
:101CF000FF73012269460248FFF784F800981CBD73
:101D00007400002010B5002821D0114B0022001FC4
:101D1000196803E0814203D80A4649680029F9D1CD
:101D200052B11368841A9C4204D1006818441060B0
:101D3000104602E0506000E0186039B102680B1AEA
:101D4000934203D10B681A4402604968416010BD98
:101D50001400002070B5D0B0FEF760FBFFF742FC26
:101D600000244C484C944D944E944F94816941F01A
:101D7000040181618069484D00F0040040902246D2
:101D800010212846FEF736FB10200121CDE94C0139
:101D90000220CDE94E104CA92846FEF74DFAFFF778
:101DA0008FF83F483D4901604FF4E131C0E901142B
:101DB0000C21C460C0E904418461C461FEF7B8FF2E
:101DC00038A0FFF741FD42A8FFF76CF9694642A829
:101DD000FFF742F9694642A8FFF73EF930B99DF88E
:101DE00002209DF8011032A0FFF72EFD42A8FFF758
:101DF000F1FA3AA0FFF728FD4FF47A742346002247
:101E000048A942A8FFF786FA0546401C05D03BA02A
:101E1000FFF71AFD002448AE09E03EA0FFF714FDCD
:101E2000ECE7315D3CA0FFF70FFD641CE4B2AC426F
:101E3000F7DB29A0FFF708FD39A0062400684B90C6
:101E400022464BA942A8FFF777F901004FF0FF3572
:101E500001D034A00EE02246694642A8FFF746F9B9
:101E60000100F6D169464BAA0E5C135CB34206D062
:101E7000214630A0FFF7E8FC284650B070BD401C5A
:101E8000C0B20428F0D3214630A0FFF7DDFC0020CB
:101E9000F3E7000000100240000801400038014054
:101EA0007400002048656C6C6F210D0A0000000072
:101EB000466F756E6420504E3533322077697468F2
:101EC000206669726D776172652076657273696FDD
:101ED0006E3A2025642E25640D0A0000576169744E
:101EE000696E6720666F7220524649442F4E464302
:101EF00020636172642E2E2E0D0A0000466F756EEF
:101F00006420636172642077697468205549443A9B
:101F1000200000002E000000253032782000000054
:101F2000000102034572726F723A20307825303218
:101F3000780D0A00577269746520626C6F636B20BC
:101F40002564206661696C65640D0A0057726974C6
:101F50006520626C6F636B20256420737563636515
:101F6000737366756C6C790D0A000000F0B50B3068
:101F7000154D20F007010024144A0FE003688B423E
:101F80000BD38B4205D95E1A43184768C3E9006733
:101F900000E04368136002C004E0021D10680028DE
:101FA000ECD12046002802D1286808B10020F0BDFD
:101FB000064A07481060074A121A22F00702C0E9D1
:101FC000002401202860D7E718000020140000201A
:101FD000BC000020B8020020F8B50E4E0D460446A5
:101FE000002210213046FEF705FA0120FEF712F913
:101FF0000A20224600902B4611460748FEF798FD1E
:102000000120FEF707F93046BDE8F8400122102113
:10201000FEF7F0B9000801401C0000200000FF009E
:10202000FF0000000000000000000102030406079A
:102030000809000000000102030400005C20000801
:10204000000000201C00000068180008782000082C
:102050001C0000209C060000781800080100000009
:10206000100000000000000000A24A040000000070
:08207000000000000000000068
:04000005080000ED02
:00000001FF
